:04000000A9C0C1C909
:02002000A6C474
:0200240071C9A0
:140034000000C8420000000000000000000000000000C03FAF
:140048000000803E0000003F0000000009CF91854725218F9D
:14005C000105036139C1313329437BC979E113F349F7FDFF7C
:1400700000000000000000000000000000000000000000007C
:14008400000000000000000000000000000000000000000068
:14009800000000000000000000000000000000000000000054
:1400AC00000000000000000000000000000000000000000040
:1400C00000000000000000000000000000000000000000002C
:1400D400000000000000000000000000000000000000000018
:1400E800000000000000000000000000000000000000000004
:1400FC000000000000000000000000000000000000000000F0
:140110000000000000000000000000000000000000000000DB
:140124000000000000000000000000000000000000000000C7
:140138000000000000000000010000010000010000010000AF
:14014C000100000100000000CFEFD4E0CDBFDEBFC054D040DE
:140160000AEA08830024E0E0F2E012E0E030F10711F00192C8
:14017400FBCF0083E4E5F0E0A0E0B1E011E000E00BBFE435CC
:14018800F10721F0C89531960D92F9CF01D0FFCF87D3B0D452
:14019C00B0D612C06BD4002319F000EE11E0FDD647D400239C
:1401B00041F0579A80E890E02BB03324282639262BB8A89542
:1401C400EDCF0895002705C04598459A4498449A0395093299
:1401D800C8F30895A5D976DA25974427AA248CE191E0FE011B
:1401EC0005E010E0FA93EA939A938A93A1DA662780E090E0FE
:14020000A0E0B0E02B843C844D845E84281639064A065B068A
:140214000CF461E00B851C852D853E854DDB06DD0EDB0B8769
:140228001C872D873E87CCDF842F860F853020F088818E7FD8
:14023C00888336C08AE090E0A0E0B0E00B851C852D853E851D
:14025000BA93AA939A938A93ADD980E091E0F801E80FF91F67
:140264002080CE01E42FFF27E80FF91F20828AE090E0A0E0D3
:14027800B0E00B851C852D853E85BA93AA939A938A9392D9FD
:14028C000B871C872D873E8743952B843C844D845E8488949A
:1402A000222032044204520409F0C2CF662381F0CE01E42FD0
:1402B400FF27E80FF91F87EF8083439507C0CE01E42FFF27E1
:1402C800E80FF91F0081A7D0242E332441502220A1F745982A
:1402DC00459A2596FCD92496089520D9F1D929974427AA248C
:1402F00081E291E0FE01349605E010E0FA93EA939A938A9334
:140304001BDA80E0888389838A838B8366272F84388849888D
:140318005A8808E310E0EDD93A932A931A930A938101920165
:14032C0069DC0CF461E004E310E0E1D9CE010F969A938A93E8
:140340003FDC7FDABBDA74DC7CDA088319832A833B833ADF4F
:14035400842F860F853020F08C818E7F8C833BC08AE090E08A
:14036800A0E0B0E0088119812A813B81BA93AA939A938A9313
:14037C0015D980E091E0F801E80FF91F2080CE010496E42F8A
:14039000FF27E80FF91F20828AE090E0A0E0B0E00881198175
:1403A4002A813B81BA93AA939A938A93F9D8088319832A8365
:1403B8003B834395288039804A805B808894222032044204BB
:1403CC00520409F0C1CF82E0841708F0BDCF8E818E7F8E8390
:1403E000662391F0CE010496E42FFF27E80FF91F87EF8083D5
:1403F400439508C0CE010496E42FFF27E80FF91F00810BD048
:14040800242E33244150222099F74598459A299660D9249666
:14041C00089556D9A02E6627442711C017E0141B0A2D80D9B3
:14043000602F617029F44598459A449A449804C04598459A45
:140444004498449A4395483068F345C93DD9A02E6627442755
:1404580017C017E0141B80E091E0EA2DFF27E80FF91F0081F5
:14046C0061D9602F617029F44598459A449A449804C04598AE
:14048000459A4498449A4395483038F326C94A935A93A801F2
:14049400CA018F70907080932B01CA01807F90701C0135949B
:1404A800279435942794359427943594279420922A01CA0151
:1404BC0080709F701C01232C332427FC3094209229012CE09B
:1404D00030E08A010070107F24D900932801222420922601A6
:1404E4000EC087E291E0E0912601FF27E80FF91F0081ACDF83
:1404F800809126018F5F8093260180912601853070F3459863
:14050C00459A5991499108954A935A9322243324F801338286
:1405200022823183208335822482378226824427552709C05E
:14053400C8010896FA01E80FF91F222420824F5F5F4FF80105
:1405480020803180421553058CF301E0599149910895AED858
:14055C00A22EA801FA0126803780408051804214530411F477
:14057000002724C0CA010896FA01AF93BF93A481B581FD011B
:14058400BF91AF91E80FF91FA082CA010496FA0120813181EF
:14059800FC01008111810F5F1F4FC7D7FC0111830083CA01E6
:1405AC000696FC018081918101969183808301E082C87CD862
:1405C0005901A801FA01268037802A143B04CCF0CF0102962B
:1405D400FC01008111810A0D1B1DFA0120813181A6D7FC01EC
:1405E80011830083CA010696FC01208031802A183B083182FB
:1405FC00208201E001C000275EC858D85901A801FA01268086
:140610003780A214B3047CF4028113810A0D1B1D2081318189
:1406240086D75801CA010896F501E80FF91F008101C0002735
:1406380044C8F80106811781089535D8C22E58012C2D8501B8
:14064C0086DF8501F4DF0B30E0E01E071CF02BE0850102D04D
:14066000002708C861D71DD8239700240A82CC24EE24662769
:1406740044278CE291E0FE0102E010E0FA93EA939A938A9303
:1406880059D80D841E84002009F0FBC0112009F0F8C000271D
:14069C0001C1222733270D851E85AFDF0A3A31F021E030E0AC
:1406B0000D851E8584DFE9C021E030E00D851E85A2DF602F9F
:1406C400ED85FE8526803780462E55242414350434F42681A3
:1406D80037818F0170DF042FDFC00F84601531F0262F3327CD
:1406EC000D851E8566DFCBC0262F3327215030400D851E8530
:1407000082DFA02E053531F02F8533270D851E8556DFBBC068
:14071400002403940A820AC02A8133270D851E8570DFA02E69
:14072800C0260A8003940A82862F82500A80081688F3262F2B
:14073C003327225030400D851E855FDF602FC01631F02F85C0
:1407500033270D851E8533DF98C041E022E030E00D851E8534
:1407640050DF602FE62EFF24C7018130E0E09E0731F08230DB
:14077800E0E09E0709F441C07FC023E030E00D851E853DDF67
:14078C00E02EE88224E030E00D851E8536DFE02EE982FE010B
:1407A000208031803092E1012092E00125E030E00D851E8573
:1407B40028DFE02EE88226E030E00D851E8521DFE02EE982EE
:1407C800FE01208031803092E3012092E20127E030E00D85E9
:1407DC001E8513DFE02EE88228E030E00D851E850CDFE02EB6
:1407F000E982FE01208031803092E5012092E4013FC023E0F9
:1408040030E00D851E85FDDEE02EE88224E030E00D851E85FF
:14081800F6DEE02EE982FE01208031803092E7012092E601EC
:14082C0025E030E00D851E85E8DEE02EE88226E030E00D8588
:140840001E85E1DEE02EE982FE01208031803092E90120921B
:14085400E80127E030E00D851E85D3DEE02EE88228E030E01A
:140868000D851E85CCDEE02EE982FE01208031803092EB0126
:14087C002092EA012F8533270D851E859ADE2F843324ED8594
:14089000FE8546805780421453040CF000CF042F2396F4D606
:1408A400249608952224332430924301209242013092450149
:1408B8002092440130924701209246010CE310E018D71093C1
:1408CC0049010093480130934B0120934A010CE310E00DD722
:1408E00010934D0100934C0130934F0120934E010CE310E03F
:1408F40002D7109351010093500130935301209352012224DB
:14090800332430925501209254013092570120925601309280
:14091C00E1012092E0013092E3012092E2013092E5012092BD
:14093000E4013092E7012092E6013092E9012092E801309282
:14094400EB012092EA0120E830E008E511E0E0CD222425BC4C
:1409580089EB86BD24BC84E085BD80916E00826080936E006C
:14096C0008952A923A924A925A928A929A928A939A93AA93BB
:14098000BA932FB62A92AA92BA9289EB86BD81E090E0A0E0E5
:14099400B0E040903801509039012090360130903701280E87
:1409A800391E4A1E5B1E309237012092360150923901409232
:1409BC00380181E090E0A0E0B0E040903C0150903D01209032
:1409D0003A0130903B01280E391E4A1E5B1E30923B012092BE
:1409E4003A0150923D0140923C0181E090E0A0E0B0E04090E4
:1409F80040015090410120903E0130903F01280E391E4A1EA4
:140A0C005B1E30923F0120923E015092410140924001B990EA
:140A2000A99029902FBEB991A99199918991999089905990F0
:140A3400499039902990189584EF91E0A0E0B0E040903801A9
:140A4800509039012090360130903701281639064A065B0673
:140A5C005CF080E080933601809337018093380180933901AC
:140A700001E001C00027089584E090E0A0E0B0E04090400117
:140A84005090410120903E0130903F01281639064A065B061F
:140A98005CF080E080933E0180933F01809340018093410150
:140AAC0001E001C0002708953A9A429A579A5F9A519A529861
:140AC0005A9A219A87B1806387B987B1836087B954985598E4
:140AD40056988BB180678BB90895389A399A40984198089529
:140AE800A895809160008861809360008DE280936000089571
:140AFC00F894DADFEEDFDCD40FD532D425DFEEDF222425BE40
:140B100082E08093690081E08DBB80936E0020926F002092F6
:140B2400700020926B0020926C0020926D0020926800209227
:140B3800640078940895B5D558012A972090EC012220D1F058
:140B4C000CE410E0D4D50E831F832887398708E410E0CDD5EC
:140B60000A831B832C833D8304E410E0C6D528833983980174
:140B740002E411E057D222242092EC019ED4C8018095909513
:140B88008F5F9F4F9093EE018093ED018CE4888384E089837F
:140B9C0080E08A838B830091460110914701222717FD2095F7
:140BB000332727FD30953ED310934701009346012090ED017A
:140BC4003090EE0139822882950102E411E057D2009146019B
:140BD80010914701FFD22A964EC563D558012A972090EF018A
:140BEC002220D1F00CE410E082D50E831F832887398708E42D
:140C000010E07BD50A831B832C833D8304E410E074D528833A
:140C14003983980102E411E005D222242092EF014CD410931E
:140C2800F1010093F0018CE4888384E0898380E08A838B83DC
:140C3C000091460110914701222717FD2095332727FD30958E
:140C5000F1D210934701009346012090F0013090F1013982FA
:140C64002882950102E411E00AD20091460110914701B2D244
:140C78002A9601C516D558012A972090F2012220D1F00CE447
:140C8C0010E035D50E831F832887398708E410E02ED50A834C
:140CA0001B832C833D8304E410E027D528833983980102E479
:140CB40011E0B8D122242092F201FFD31093F4010093F301D6
:140CC8008CE4888384E0898380E08A838B8300914601109139
:140CDC004701222717FD2095332727FD3095A4D21093470106
:140CF000009346012090F3013090F40139822882950102E4DC
:140D040011E0BDD10091460110914701009510950F5F1F4F85
:140D180061D22A96B0C4C5D458012A972090F5012220D1F004
:140D2C000CE410E0E4D40E831F832887398708E410E0DDD4EC
:140D40000A831B832C833D8304E410E0D6D428833983980183
:140D540002E411E067D122242092F501AED31093F7010093DF
:140D6800F6018CE4888384E0898380E08A838B830091460142
:140D7C0010914701222717FD2095332727FD309553D210935D
:140D90004701009346012090F6013090F701398228829501D3
:140DA40002E411E06CD1009146011091470114D22A9663C499
:140DB80078D458012A972090F8012220D1F00CE410E097D4CA
:140DCC000E831F832887398708E410E090D40A831B832C8357
:140DE0003D8304E410E089D428833983980102E411E01AD148
:140DF40022242092F80161D3C801809590958F5F9F4F9093C4
:140E0800FA018093F9018CE4888384E0898380E08A838B8368
:140E1C000091460110914701222717FD2095332727FD3095AC
:140E300001D210934701009346012090F9013090FA013982F6
:140E44002882950102E411E01AD10091460110914701009542
:140E580010950F5F1F4FBED12A960DC422D458012A97209025
:140E6C00FB012220D1F00CE410E041D40E831F8328873987DC
:140E800008E410E03AD40A831B832C833D8304E410E033D4FB
:140E940028833983980102E411E0C4D022242092FB010BD30D
:140EA8001093FD010093FC018CE4888384E0898380E08A83AD
:140EBC008B830091460110914701222717FD2095332727FDC3
:140ED0003095B0D110934701009346012090FC013090FD0198
:140EE40039822882950102E411E0C9D00091460110914701CE
:140EF80071D12A96C0C35498559856988BB180678BB94C9B4C
:140F0C000BC04D9909C04E9907C082E090E09093FF018093A1
:140F2000FE0140C04C990BC04D9B09C04E9B07C084E090E0D9
:140F34009093FF018093FE0133C04C9B0BC04D9B09C04E9B35
:140F480007C083E090E09093FF018093FE0126C04C990BC030
:140F5C004D9909C04E9907C081E090E09093FF018093FE011E
:140F700019C04C990BC04D9B09C04E9907C085E090E090938D
:140F8400FF018093FE010CC04C990AC04D9908C04E9B06C06F
:140F980086E090E09093FF018093FE0108954A935A93A8012A
:140FAC002090FE013090FF01C1018130E0E09E07A9F082309F
:140FC000E0E09E07B1F08330E0E09E07B9F08430E0E09E073D
:140FD400C1F08530E0E09E07C9F08630E0E09E07D1F01DC0CC
:140FE800FA0100811181A7DD18C0FA0102811381F4DD13C0D5
:140FFC00FA01048115813CDE0EC0FA010681178188DE09C09A
:14101000FA0100851185D0DE04C0FA010285138521DF599140
:14102400499108953A932A9322243324F80133822282358211
:141038002482338A228A749631822082288039804A805B8030
:14104C00F801369620823182428253822C803D804E805F80C7
:14106000F8013A962082318242825382288439844A845B84AF
:14107400F80126863786408A518A2296089513D37901680143
:14108800AE80BF80F601F382E28222883388358A248A2280A3
:14109C0033802A183B08338A228A268037804084518400E4C5
:1410B00010E023D33A932A931A930A93810192019FD50CF0ED
:1410C4001FC0C6010496FC0100811181EAD318012901F601D1
:1410D80002891389E4D338014901F601068117812085318532
:1410EC009BD58301940118D4810192019AD3A3D3FC011183F2
:14110000008319C0C60104963C01FC0100811181CAD318011B
:141114002901F60102891389C4D3C60106969A938A9355D511
:141128008101920180D389D3F30111830083F6012684378488
:14113C004088518800E410E0DAD23A932A931A930A93810128
:14115000920156D50CF024C0C60104965C01FC01008111811F
:14116400A0D318012901F6016488758802891389061917097B
:1411780096D338014901F60106851785208931894DD5830150
:14118C009401CAD3810192014CD355D3F501118300831DC0D7
:1411A000C60104965C01FC01008111817CD318012901F601E4
:1411B40064887588028913890619170972D3C6010E969A93FB
:1411C8008A9303D5810192012ED337D3F5011183008351C2DE
:1411DC004A935A93A8014030E0E05E077CF4443BEBEF5E07C9
:1411F00014F444EB5BEF4098419A8A01009510950F5F1F4F16
:141204008AD113C0222433242416350664F48CE494E08417BF
:14121800950714F44CE454E0409A41988A0179D102C0409898
:14122C00419859914991089579D12897088519852A853B85D1
:141240003DD3F6D4180129010C851D852E853F8535D33A93FE
:141254002A931A930A9381019201D0D44CF4288439844A844F
:141268005B84288239824A825B8227C080E090E0A0E0B0E0BE
:14127C00288439844A845B84281639064A065B0654F40C8541
:141290001D852E853F8528D20C831D832E833F8308C02C841D
:1412A4003D844E845F842C823D824E825F822C803D804E806B
:1412B8005F80288239824A825B82288039804A805B80288681
:1412CC0039864A865B86088519852C960895519A5098589A4F
:1412E0000895F89422242092C1002092C00086E08093C2006B
:1412F4008DE18093C4002092C50088E98093C100789408953C
:141308000A921A922A923A924A925A926A927A928A929A92E9
:14131C000A931A932A933A938A939A93AA93BA93EA93FA930B
:141330000FB60A922091C60008E511E082D909900FBEF991A8
:14134400E991B991A991999189913991299119910991999062
:14135800899079906990599049903990299019900990189533
:14136C00B6DFB9CF80916900826080936900E89A52985A9A18
:1413800053985B9A08952A923A924A925A928A929A920A93A7
:141394001A932A933A938A939A93AA93BA932FB62A92AA925D
:1413A800BA92F8943A9A84E028B0282628B881E020906900A1
:1413BC002826209269004A9902C04B9904C04A9B33C04B99AB
:1413D00031C081E090E0A0E0B0E04090300150903101209074
:1413E4002E0130902F01280E391E4A1E5B1E30922F012092C4
:1413F8002E01509231014092300181E090E0A0E0B0E04090EA
:14140C003401509035012090320130903301280E391E4A1EB5
:141420005B1E3092330120923201509235014092340130C055
:1414340081E090E0A0E0B0E0409030015090310120902E01D1
:1414480030902F01281A390A4A0A5B0A30922F0120922E018F
:14145C00509231014092300181E090E0A0E0B0E0409034017F
:14147000509035012090320130903301281A390A4A0A5B0A3D
:14148400309233012092320150923501409234017894B99005
:14149800A99029902FBEB991A991999189913991299119916B
:1414AC000991999089905990499039902990189559CFF894AB
:1414C00000912E0110912F0180E080932E0180932F0180938F
:1414D40030018093310178940895219A0895F8942224209209
:1414E80081008BEF8093850085E38093840020928900209271
:1414FC00880084E0809387008BEC8093860082E88093800049
:1415100089E18093810078940895109389000093880008953C
:14152400DCDFDDCF3A932A931A930A9308956894DA92D12E74
:1415380004C0E894DA92D12ED32617FF04C0109500950F5F79
:14154C001F4F37FF04C0309520952F5F3F4F0BD0D7FE04C019
:14156000109500950F5F1F4FD9900895689401C0E894EA92A6
:14157400FA928A93EE24FF2480E1000F111FEE1CFF1CE216C8
:14158800F30618F0E21AF30A03958A95A1F716F40E2D1F2D75
:14159C008991F990E9900895E89401C068942FD0CC2408C092
:1415B000E89401C0689429D037FD96D0B7FD51D0772488243F
:1415C4009924AA24BB2441D0C1F044D0B1F0E8E2000F111F29
:1415D800221F331F771C881C991CAA1CBB1C88169906AA06F6
:1415EC00BB0628F0881A990AAA0ABB0A0395EA9559F726F4D3
:14160000082D192D2A2D3B2D13C07A928A929A92AA92BA92ED
:14161400CA92EA938A939A93AA93BA938B859C85AD85BE856F
:14162800C32E0EF0CB260895C7FC5AD0B991A991999189917C
:14163C00E991C990B990A99099908990799024960895E02F94
:14165000E12BE22BE32B0895E82FE92BEA2BEB2B08958095BA
:141664009095A095B0958F5F9F4FAF4FBF4F0895A990B990CC
:14167800C990D9900895A990B990C990D990E990F99008951C
:14168C00A990B990C990D990E990F99049915991699179913C
:1416A00008957A936A935A934A93FA92EA92DA92CA92BA92A9
:1416B400AA9208955A934A93BA92AA920895A990B9904991FE
:1416C800599108957A936A935A934A93BA92AA920895A99055
:1416DC00B99049915991699179910895009510952095309598
:1416F0000F5F1F4F2F4F3F4F0895EA93FA930A92E02FF12F8C
:14170400C895002D3196C895102D3196C895202D3196C89551
:14171800302D0990F991E9910895222321F0169507952A95CA
:14172C00FACF0895112319F006951A95FBCF0895AA93BA93CB
:14174000EA93FA930A92AF81B885ED81FE810030010729F044
:1417540001900D9201501040F8CF0990F991E991B991A991C8
:1417680024960895689401C0E894BAD14CD109F443C0E62C23
:14177C00D52CC42CB32EA22E912E802E0081118122813381E0
:141790003ED109F43FC0842D952D8C199D09B9F072F4909548
:1417A400809501964C2C5D2C883190F5359527951795079578
:1417B8000197D1F708C08831F8F4B594A794979487940197EE
:1417CC00D1F766242EF0080D191D2A1D3B1D09C0801A910AB1
:1417E000A20AB30A082D192D2A2D3B2D33231AF47BDF80E82C
:1417F400682E33D101C066D184D108950081118122813381F3
:14180800CEF708D1B9F380E83827F4CF082D192D2A2D3B2DBE
:14181C004C2C5D2C6E2C332352F760DF80E8682EE6CFFA93FF
:14183000EA93EC2FFD2F32969BDFE991F991249608954A9267
:141844005A926A928A93F0D011F15520E2F08FE14816C0F400
:1418580087E14816D1F058F4419489EE481A05C035952795B0
:14186C00179507954A94D1F70EC087E1481A000F111F221F62
:14188000331F4A94D1F705C03FE7232F132F032F03C0662062
:1418940009F028DF89916990599049900895689401C0E89495
:1418A8002227332746F017FD209517FD309503C0689401C031
:1418BC00E8944A925A926A928A9387E1482E552466242EF0BC
:1418D00033231AF409DF80E8682EC1D0899169905990499054
:1418E4000895FA93EA93EA81FB8127D0E991F9912296089512
:1418F800FA93EA93EC2FFD2F32961DD0E991F991249608957B
:14190C00FA93EA93EA81FB8114D0E991F991398328831A93DA
:141920000A930895FA93EA93EC2FFD2F329607D0E991F99185
:141934003B832A831983088308950A921A922A923A92D0D000
:141948003A932A931A930A93008111812281338169D009F417
:14195C0053C0E62CD52CC42CB32EA22E912E802E09911991FF
:14197000299139915BD099F16E244C185D0880E848165306B0
:141984000CF031C081E848168FEF58060CF433C080E2332413
:14199800232E122E012E302F22271127002726941794079474
:1419AC0037952795000F111F221F331F001C111C221C331CF7
:1419C00028F0081819082A083B0804C0080C191C2A1C3B1C9B
:1419D4000AF001608A9551F740D093D0399029901990099006
:1419E80008950FEF102F2FE73FE76620A1F378DEF2CF00277D
:1419FC00102F202F302FEDCF0991199129913991EECF0ED0CB
:141A100021F0662009F068DE98940895002329F4112319F4A2
:141A2400222309F433230895F7DF99F08A93632E80E868227A
:141A3800220F331F432E8FE7481A55248827580A269530E871
:141A4C00232B33278991989408954424552466240895DEDF36
:141A600009F40895AA93BA93D2019A938A938EE790E03323F6
:141A740049F03695279517950795A817B907CCF41196F5CFAC
:141A88008095909501962223BAF0000F111F221FA817B9078B
:141A9C0014F01197F6CF0027112722273327899199912D0151
:141AB000B991A991089533270FEF102F2FE7322F89919991AF
:141AC4002D0102C0AA93BA93A7DF49F0D201A158BF4F2D01CD
:141AD800342D220F369527953629B991A99108954A925A9299
:141AEC006A927A928A929A92AA92BA92CA92DA92EA92FA923E
:141B00008A939A93089599918991F990E990D990C990B99099
:141B1400A9909990899079906990599049900895E1DFAA93E4
:141B2800BA9380DFD1F1E62CD52CC42CB32EA22E912E802E1A
:141B3C00008111812281338173DF69F16E244C0C5D1C80E8B4
:141B50004816530654F581E848168FEF58065CF1A29EB12D73
:141B6400A02D919E912D802DA09E800D911DA31FB31F829ED9
:141B7800800D911DA31FB31F929E900DA11DB31FA19E900D51
:141B8C00A11DB31F2B2F1A2F092F880F001F111F221F331F61
:141BA0005EDFB991A991AFDF08950FEF102F2FE78FE7482E06
:141BB400F6CF0027102F202F302FF1CFFA93EA93EA81FB8193
:141BC800ADDFE991F99122960895FA93EA93EA81FB81A4DFB0
:141BDC00E991F991398328831A930A930895C0DD332332F08E
:141BF00015DF11F001E00895002708950FEF0895FA93EA9305
:141C0400EC2FFD2F3296EFDFE991F99124960023089502DF90
:141C180021F00F9300E830270F910895F8DF3A932A931A937B
:141C2C000A9308957BDC24972C803D804E805F8000E510E06D
:141C40005CDD3A932A931A930A93022D132D242D352DD6DFAC
:141C540054F40C811D812E813F81DBDF088319832A833B834E
:141C680008C02C803D804E805F80288239824A825B820881F3
:0A1C7C0019812A813B812896089502
:00000001FF
